:100000000C9451000C9453030C9485030C94A50498
:100010000C94A5040C94A5040C94A5040C94A504BC
:100020000C94A5040C94A5040C94A5040C94A002B3
:100030000C94A5040C941B030C94A5040C94A50427
:100040000C94A5040C94A5040C94A5040C94A5048C
:100050000C94A504FC0015012E0147015F015F010E
:100060005F015F015F015F015F015F015F015F0190
:100070005F015F015F015F015F015F015F015F0180
:100080005F015F015F015F015F015F015F015F0170
:100090005F015F01FC0015012E0147010060006E49
:1000A000800011241FBECFE5D4E0DEBFCDBFECE958
:1000B000F0E040E017C0B591A591359125910591EB
:1000C00007FD0CC095918591EF01F92FE82F059060
:1000D0000D92A217B307D9F7FE0104C01D92A21713
:1000E000B307E1F7E13AF40731F70E947B000C9483
:0600F0007900F894FFCF37
:1000F600CF93DF9300D000D0CDB7DEB70E940804BF
:1001060041E061E084E60E94F00041E062E084E6BE
:100116000E94F00041E060E081E60E94F0000E944B
:10012600230419821A821B821C8261E070E08DE62C
:1001360090E00E94590480916D008C36A1F461E034
:1001460070E08CE690E00E94590480916C00803348
:1001560021F48BB38E7F8BBB2CC0813351F58BB3CF
:1001660081608BBB26C0863621F561E070E08CE6A7
:1001760090E00E94590460916C006B3249F480E073
:1001860090E0A0E8BFE389839A83AB83BC8311C068
:1001960070E06053710980E090E00E94DE0220E08A
:1001A60030E040E251E40E949A0469837A838B83AB
:1001B6009C8329813A814B815C8160E070E080E814
:1001C6009FE30E94720420E030E04FE753E40E9470
:0A01D6009E040E94B7036CBFA8CF7F
:1001E00090E0FC01E154F109E432F10508F067C048
:1001F000E65DFF4F0C949404413059F42AB381E03A
:1002000090E002C0880F991F6A95E2F7822B8ABBA3
:1002100008952AB381E090E002C0880F991F6A9583
:10022000E2F7809582238ABB0895413059F427B3C1
:1002300081E090E002C0880F991F6A95E2F7822B57
:1002400087BB089527B381E090E002C0880F991F13
:100250006A95E2F78095822387BB0895413059F46F
:1002600024B381E090E002C0880F991F6A95E2F7FD
:10027000822B84BB089524B381E090E002C0880FF4
:10028000991F6A95E2F78095822384BB08954130D7
:1002900059F421B381E090E002C0880F991F6A955C
:1002A000E2F7822B81BB089521B381E090E002C088
:1002B000880F991F6A95E2F78095822381BB089584
:1002C00010C00E94800458F00E94790440F029F484
:1002D0005F3F29F00C948E0451110C9488040C9407
:1002E000A2040E94E60368F39923B1F3552391F326
:1002F000951B550BBB27AA2762177307840738F095
:100300009F5F5F4F220F331F441FAA1FA9F335D0F1
:100310000E2E3AF0E0E832D091505040E695001CA5
:10032000CAF72BD0FE2F29D0660F771F881FBB1F5F
:10033000261737074807AB07B0E809F0BB0B802D3D
:10034000BF01FF2793585F4F3AF09E3F510578F069
:100350000C948E040C9488045F3FE4F3983ED4F32D
:10036000869577956795B795F7959F5FC9F7880F3D
:10037000911D9695879597F90895E1E0660F771F8F
:10038000881FBB1F621773078407BA0720F0621B20
:0E039000730B840BBA0BEE1F88F7E0950895EF
:10039E000FC00E94790438F00E94800420F095234B
:1003AE0011F00C948E040C94A20411240C94880465
:1003BE000E94E60370F3959FC1F3950F50E0551F11
:1003CE00629FF001729FBB27F00DB11D639FAA279C
:1003DE00F00DB11DAA1F649F6627B00DA11D661FEB
:1003EE00829F2227B00DA11D621F739FB00DA11D0C
:1003FE00621F839FA00D611D221F749F3327A00DC6
:10040E00611D231F849F600D211D822F762F6A2F61
:10041E0011249F5750409AF0F1F088234AF0EE0FC6
:10042E00FF1FBB1F661F771F881F91505040A9F7F3
:10043E009E3F510580F00C948E040C9488045F3F0F
:10044E00E4F3983ED4F3869577956795B795F7952F
:10045E00E7959F5FC1F7FE2B880F911D96958795A7
:04046E0097F908955D
:1004720011C00E94790438F00E94800420F039F4FF
:100482009F3F19F426F40C94A2040EF4E095E7FBC6
:100492000C948E04E92F0E94E60358F3BA17620700
:1004A20073078407950720F079F4A6F50C94870466
:1004B2000EF4E0950B2EBA2FA02D0B01B90190017D
:1004C2000C01CA01A0011124FF27591B99F0593FC1
:1004D20050F4503E68F11A16F040A22F232F342F09
:1004E2004427585FF3CF469537952795A795F04057
:1004F2005395C9F77EF41F16BA0B620B730B840B6C
:10050200BAF09150A1F0FF0FBB1F661F771F881F23
:10051200C2F70EC0BA0F621F731F841F48F487957B
:1005220077956795B795F7959E3F08F0B0CF93956D
:0E053200880F08F09927EE0F9795879508958A
:100540001F920F920FB60F9211242F933F934F9348
:100550005F938F939F93EF93FF93F8948CB14091A7
:100560006000509161002091620030916300421759
:100570005307B0F48032A1F0209160003091610007
:10058000E0916400F0916500E20FF31F8083809199
:1005900060009091610001969093610080936000EB
:1005A0007894FF91EF919F918F915F914F913F913F
:0C05B0002F910F900FBE0F901F90189518
:1005BC00E89409C097FB3EF49095809570956195F1
:1005CC007F4F8F4F9F4F9923A9F0F92F96E9BB27A7
:1005DC009395F695879577956795B795F111F8CF23
:1005EC00FAF4BB0F11F460FF1BC06F5F7F4F8F4F8E
:1005FC009F4F16C0882311F096E911C0772321F084
:10060C009EE8872F762F05C0662371F096E8862F1B
:10061C0070E060E02AF09A95660F771F881FDAF772
:0A062C00880F9695879597F90895B9
:100636001F920F920FB60F9211242F933F938F9311
:100646009F93EF93FF93F8948091660090916700D3
:100656000196909367008093660020916600309122
:10066600670080916800909169002817390760F447
:100676008091660090916700E0916A00F0916B00AE
:10068600E80FF91F80818CB97894FF91EF919F91C3
:100696008F913F912F910F900FBE0F901F9018953D
:1006A6001F920F920FB60F9211242F933F934F93E1
:1006B6005F936F937F938F939F93AF93BF93EF93C4
:1006C600FF93CF93DF931F92CDB7DEB781E4898383
:1006D60061E070E0CE0101960E9436040F90DF9132
:1006E600CF91FF91EF91BF91AF919F918F917F91A4
:1006F6006F915F914F913F912F910F900FBE0F9089
:040706001F90189593
:10070A001F920F920FB60F9211242F933F934F937C
:10071A005F936F937F938F939F93AF93BF93EF935F
:10072A00FF93CF93DF931F92CDB7DEB78AE5898314
:10073A0061E070E0CE0101960E9436040F90DF91CD
:10074A00CF91FF91EF91BF91AF919F918F917F913F
:10075A006F915F914F913F912F910F900FBE0F9024
:04076A001F9018952F
:10076E000E94EE0388F09F5798F0B92F9927B75142
:10077E00B0F0E1F0660F771F881F991F1AF0BA9537
:10078E00C9F714C0B13091F00E948704B1E008950A
:10079E000C948704672F782F8827B85F39F0B93FFC
:1007AE00CCF3869577956795B395D9F73EF49095EA
:0E07BE008095709561957F4F8F4F9F4F0895E6
:1007CC0057FD9058440F551F59F05F3F71F04795F6
:1007DC00880F97FB991F61F09F3F79F087950895DB
:1007EC00121613061406551FF2CF4695F1DF08C0FA
:1007FC00161617061806991FF1CF86957105610517
:04080C0008940895AF
:10081000CF93DF9300D000D01F92CDB7DEB783E334
:100820008A8319821B8288ED8C8386E88D83CE01B2
:1008300001960E9466040F900F900F900F900F90FA
:06084000DF91CF91089545
:100846008CE082BB8AE085BF80EC8BBF81E08ABBEF
:1008560082E08BBB87E08ABB87B3886087BB85E76E
:0608660083BF78940895A1
:10086C0090936B0080936A007093690060936800AA
:10087C0010926700109266005D9BFECFFC01808198
:04088C008CB9089586
:10089000092E0394000C11F4882352F0BB0F40F48E
:1008A000BF2B11F460FF04C06F5F7F4F8F4F9F4FCE
:0208B0000895A9
:1008B200909365008093640070936300609362007C
:0A08C200109261001092600008958A
:1008CC00FC01808180BD818189B982818BB9838152
:0808DC008AB9848180BD0895F2
:0E08E4005058BB27AA270E9439020C944804E2
:0E08F20000240A941616170618060906089523
:0E09000000240A941216130614060506089524
:0E090E00E894BB2766277727CB0197F9089559
:0C091C0097F99F6780E870E060E00895A4
:0C092800EE0FFF1F0590F491E02D0994E4
:080934000E9460010C944804CC
:08093C000E94CF010C94480455
:060944009FEF80EC089516
:04094A000C94000009
:00000001FF
