:100000000C944E000C9407040C942C040C941105D1
:100010000C9411050C9411050C9411050C94110508
:100020000C9411050C9411050C9411050C94C50445
:100030000C9411050C9411050C9411050C941105E8
:100040000C9411050C9411050C9411050C941105D8
:100050000C9411059F01B801D101EA0102020202CC
:100060000202020202020202020202020202020270
:100070000202020202020202020202020202020260
:100080000202020202020202020202020202020250
:10009000020202029F01B801D101EA0111241FBE30
:1000A000CFE5D4E0DEBFCDBF0E945A000C945800CB
:0400B000F894FFCFF2
:1000B400CF93DF9300D000D000D0CDB7DEB760E897
:1000C40075E280E090E00E94E00341E061E084E6B4
:1000D4000E94930141E062E084E60E94930141E0C2
:1000E40060E081E60E9493010E94950419821A82BD
:1000F4001B821C820E9402058E838E81803409F04B
:10010400C4C00E940205F82E2FEF80E792E0215030
:1001140080409040E1F700C000000E940205813455
:1001240060F090E0C79720E137E2829F8001839FCF
:10013400100D929F100D11240BC090E0C09720E188
:1001440037E2829F8001839F100D929F100D11242E
:100154000E940205813480F0282F30E027533109B2
:1001640048EE53E0249FC001259F900D349F900DCD
:100174001124080F191F0FC0282F30E02053310914
:1001840048EE53E0249FC001259F900D349F900DAD
:100194001124080F191F0E940205813468F0282FCA
:1001A40030E02753310944E6429FC001439F900D3C
:1001B4001124080F191F0CC0282F30E020533109D7
:1001C40044E6429FC001439F900D1124080F191F5C
:1001D4000E940205813480F090E0C7979C01220FB1
:1001E400331F880F991F880F991F880F991F820F3B
:1001F400931F080F191F0FC090E0C0979C01220F96
:10020400331F880F991F880F991F880F991F820F1A
:10021400931F080F191F0E940205813428F0080F4C
:10022400111D0753110904C0080F111D00531109B2
:1002340022E7F21217C0C8010E94CF04182F8FEFD3
:1002440090E722E0815090402040E1F700C0000098
:100254000E9402058B33B1F4812F0E94FE040E9498
:10026400800310C087E7F8120DC00E940205F82E23
:100274000E9402058B3331F46F2DC8010E94B9042A
:100284000E94800380E28E8338C08E818C3689F48C
:100294000E9402058D838D81803321F48BB38E7F80
:1002A4008BBB2BC08D81813341F58BB381608BBBBC
:1002B40024C08E81863609F50E9402058D838D81C6
:1002C4008B3249F480E090E0A0E8BFE389839A830D
:1002D400AB83BC8312C06D8170E06053710980E010
:1002E40090E00E94430320E030E040E251E40E94A9
:1002F400060569837A838B839C8329813A814B81A8
:100304005C8160E070E080E89FE30E94D60420E016
:1003140030E04FE753E40E940A050E94B1036CBF2A
:02032400E9CE20
:1003260090E0FC01E154F109E432F10508F067C000
:10033600E65DFF4F0C94F804413059F42AB381E08E
:1003460090E002C0880F991F6A95E2F7822B8ABB5C
:1003560008952AB381E090E002C0880F991F6A953C
:10036600E2F7809582238ABB0895413059F427B37A
:1003760081E090E002C0880F991F6A95E2F7822B10
:1003860087BB089527B381E090E002C0880F991FCC
:100396006A95E2F78095822387BB0895413059F428
:1003A60024B381E090E002C0880F991F6A95E2F7B6
:1003B600822B84BB089524B381E090E002C0880FAD
:1003C600991F6A95E2F78095822384BB0895413090
:1003D60059F421B381E090E002C0880F991F6A9515
:1003E600E2F7822B81BB089521B381E090E002C041
:1003F600880F991F6A95E2F78095822381BB08953D
:1004060010C00E94E40458F00E94DD0440F029F474
:100416005F3F29F00C94F20451110C94EC040C94F7
:100426000E050E94510468F39923B1F3552391F305
:10043600951B550BBB27AA2762177307840738F04D
:100446009F5F5F4F220F331F441FAA1FA9F335D0AA
:100456000E2E3AF0E0E832D091505040E695001C5E
:10046600CAF72BD0FE2F29D0660F771F881FBB1F18
:10047600261737074807AB07B0E809F0BB0B802DF6
:10048600BF01FF2793585F4F3AF09E3F510578F022
:100496000C94F2040C94EC045F3FE4F3983ED4F31E
:1004A600869577956795B795F7959F5FC9F7880FF6
:1004B600911D9695879597F90895E1E0660F771F48
:1004C600881FBB1F621773078407BA0720F0621BD9
:0E04D600730B840BBA0BEE1F88F7E0950895A8
:1004E4000FC00E94DD0438F00E94E40420F095233C
:1004F40011F00C94F2040C940E0511240C94EC04E9
:100504000E94510470F3959FC1F3950F50E0551F5D
:10051400629FF001729FBB27F00DB11D639FAA2754
:10052400F00DB11DAA1F649F6627B00DA11D661FA3
:10053400829F2227B00DA11D621F739FB00DA11DC4
:10054400621F839FA00D611D221F749F3327A00D7E
:10055400611D231F849F600D211D822F762F6A2F1A
:1005640011249F5750409AF0F1F088234AF0EE0F7F
:10057400FF1FBB1F661F771F881F91505040A9F7AC
:100584009E3F510580F00C94F2040C94EC045F3F00
:10059400E4F3983ED4F3869577956795B795F795E8
:1005A400E7959F5FC1F7FE2B880F911D9695879560
:0405B40097F9089516
:1005B80011C00E94DD0438F00E94E40420F039F4F0
:1005C8009F3F19F426F40C940E050EF4E095E7FB12
:1005D8000C94F204E92F0E94510458F3BA176207E9
:1005E80073078407950720F079F4A6F50C94EB04BB
:1005F8000EF4E0950B2EBA2FA02D0B01B901900136
:100608000C01CA01A0011124FF27591B99F0593F79
:1006180050F4503E68F11A16F040A22F232F342FC1
:100628004427585FF3CF469537952795A795F0400F
:100638005395C9F77EF41F16BA0B620B730B840B24
:10064800BAF09150A1F0FF0FBB1F661F771F881FDC
:10065800C2F70EC0BA0F621F731F841F48F4879534
:1006680077956795B795F7959E3F08F0B0CF939526
:0E067800880F08F09927EE0F97958795089543
:10068600E89409C097FB3EF4909580957095619526
:100696007F4F8F4F9F4F9923A9F0F92F96E9BB27DC
:1006A6009395F695879577956795B795F111F8CF58
:1006B600FAF4BB0F11F460FF1BC06F5F7F4F8F4FC3
:1006C6009F4F16C0882311F096E911C0772321F0B9
:1006D6009EE8872F762F05C0662371F096E8862F51
:1006E60070E060E02AF09A95660F771F881FDAF7A8
:0A06F600880F9695879597F90895EF
:100700008BB381608BBB2FEF80E792E0215080405C
:100710009040E1F700C000008BB38E7F8BBB2FEFC2
:1007200080E792E0215080409040E1F700C0000057
:100730008BB381608BBB2FEF80E792E0215080402C
:100740009040E1F700C000008BB38E7F8BBB2FEF92
:1007500080E792E0215080409040E1F700C0000027
:020760000895FA
:100762000E94590488F09F5798F0B92F9927B751E2
:10077200B0F0E1F0660F771F881F991F1AF0BA9543
:10078200C9F714C0B13091F00E94EB04B1E00895B2
:100792000C94EB04672F782F8827B85F39F0B93FA4
:1007A200CCF3869577956795B395D9F73EF49095F6
:0E07B2008095709561957F4F8F4F9F4F0895F2
:1007C000DC01CB01880F991FAA1FBB1F880F991F3F
:1007D000AA1FBB1F9C01AD01220F331F441F551FD1
:1007E000220F331F441F551F60E072E18AE790E03B
:1007F0000E9473042150310930BD29B98AB1886043
:0E0800008AB98AB180618AB986E880BD089500
:10080E001F920F920FB60F9211242F933F934F9377
:10081E005F936F937F938F939F93AF93BF93EF935A
:10082E00FF9381E40E94FE04FF91EF91BF91AF917F
:10083E009F918F917F916F915F914F913F912F91EA
:0A084E000F900FBE0F901F90189539
:100858001F920F920FB60F9211242F933F934F932D
:100868005F936F937F938F939F93AF93BF93EF9310
:10087800FF938AE50E94FE04FF91EF91BF91AF912B
:100888009F918F917F916F915F914F913F912F91A0
:0A0898000F900FBE0F901F901895EF
:1008A20057FD9058440F551F59F05F3F71F047951F
:1008B200880F97FB991F61F09F3F79F08795089504
:1008C200121613061406551FF2CF4695F1DF08C023
:1008D200161617061806991FF1CF86957105610540
:0408E20008940895D9
:1008E600A1E21A2EAA1BBB1BFD010DC0AA1FBB1F2E
:1008F600EE1FFF1FA217B307E407F50720F0A21BA0
:10090600B30BE40BF50B661F771F881F991F1A940C
:1009160069F760957095809590959B01AC01BD0136
:04092600CF01089560
:10092A008CE082BB8AE085BF80EC8BBF81E08ABB0A
:10093A0082E08BBB87E08ABB87B3886087BB85E789
:06094A0083BF78940895BC
:10095000092E0394000C11F4882352F0BB0F40F4CD
:10096000BF2B11F460FF04C06F5F7F4F8F4F9F4F0D
:020970000895E8
:100972008EBB9FBB6DBB8CB384608CBB8CB382601F
:080982008CBBE199FECF089542
:10098A001F920F920FB60F9211240F900FBE0F9065
:04099A001F901895FD
:0E099E008EBB9FBB8CB381608CBB8DB3089564
:0E09AC005058BB27AA270E94DC020C94A80416
:0E09BA0000240A94161617061806090608955A
:0E09C80000240A94121613061406050608955C
:0E09D600E894BB2766277727CB0197F9089591
:0C09E40097F99F6780E870E060E00895DC
:0C09F000EE0FFF1F0590F491E02D09941C
:0809FC005D9BFECF8CB908954C
:080A04005F9BFECF8CB1089549
:080A0C000E9403020C94A804EF
:080A14000E9472020C94A80478
:060A1C009FEF80EC08953D
:040A22000C94000030
:00000001FF
