:100000000C9478000C94F8010C942A020C947E0352
:100010000C947E030C947E030C947E030C947E035C
:100020000C947E030C947E030C947E030C9482014A
:100030000C947E030C94C0010C947E030C947E03FC
:100040000C947E030C947E030C947E030C947E032C
:100050000C947E03AE00C700E000F900110111010D
:100060001101110111011101110111011101110100
:1000700011011101110111011101110111011101F0
:1000800011011101110111011101110111011101E0
:1000900011011101AE00C700E000F9001E01370197
:1000A0005001690181018101810181018101810189
:1000B0008101810181018101810181018101810130
:1000C0008101810181018101810181018101810120
:1000D0008101810181018101810181011E013701BD
:1000E000500169010060007A000700007A008E80EC
:1000F00011241FBECFE5D4E0DEBFCDBFE4EEF0E0BB
:1001000040E017C0B591A59135912591059107FD66
:100110000CC095918591EF01F92FE82F05900D9274
:10012000A217B307D9F7FE0104C01D92A217B307A7
:10013000E1F7E03FF40731F70E947B030C94A00045
:04014000F894FFCF61
:1001440090E0FC01E154F109E432F10508F067C0E4
:10015400E65DFF4F0C947503413059F42AB381E0F6
:1001640090E002C0880F991F6A95E2F7822B8ABB40
:1001740008952AB381E090E002C0880F991F6A9520
:10018400E2F7809582238ABB0895413059F427B35E
:1001940081E090E002C0880F991F6A95E2F7822BF4
:1001A40087BB089527B381E090E002C0880F991FB0
:1001B4006A95E2F78095822387BB0895413059F40C
:1001C40024B381E090E002C0880F991F6A95E2F79A
:1001D400822B84BB089524B381E090E002C0880F91
:1001E400991F6A95E2F78095822384BB0895413074
:1001F40059F421B381E090E002C0880F991F6A95F9
:10020400E2F7822B81BB089521B381E090E002C024
:10021400880F991F6A95E2F78095822381BB089520
:1002240090E0FC01E154F109E432F10508F067C003
:10023400E25BFF4F0C947503413059F42BB381E01A
:1002440090E002C0880F991F6A95E2F7822B8BBB5E
:1002540008952BB381E090E002C0880F991F6A953E
:10026400E2F7809582238BBB0895413059F428B37B
:1002740081E090E002C0880F991F6A95E2F7822B13
:1002840088BB089528B381E090E002C0880F991FCD
:100294006A95E2F78095822388BB0895413059F42A
:1002A40025B381E090E002C0880F991F6A95E2F7B8
:1002B400822B85BB089525B381E090E002C0880FAE
:1002C400991F6A95E2F78095822385BB0895413092
:1002D40059F422B381E090E002C0880F991F6A9517
:1002E400E2F7822B82BB089522B381E090E002C042
:1002F400880F991F6A95E2F78095822382BB08953F
:100304001F920F920FB60F9211242F933F934F9386
:100314005F938F939F93EF93FF93F8948CB14091E5
:10032400820050918300209184003091850042170F
:100334005307B0F48032A1F0209182003091830001
:10034400E0918600F0918700E20FF31F8083809193
:1003540082009091830001969093830080938200A1
:100364007894FF91EF919F918F915F914F913F917D
:0C0374002F910F900FBE0F901F90189556
:100380001F920F920FB60F9211242F933F938F93CA
:100390009F93EF93FF93F894809188009091890048
:1003A0000196909389008093880020918800309175
:1003B000890080918A0090918B002817390760F49A
:1003C0008091880090918900E0918C00F0918D00DF
:1003D000E80FF91F80818CB97894FF91EF919F917C
:1003E0008F913F912F910F900FBE0F901F901895F6
:1003F0001F920F920FB60F9211242F933F934F939A
:100400005F936F937F938F939F93AF93BF93EF937C
:10041000FF93CF93DF931F92CDB7DEB781E489833B
:1004200061E070E0CE0101960E9406030F90DF911B
:10043000CF91FF91EF91BF91AF919F918F917F915C
:100440006F915F914F913F912F910F900FBE0F9041
:040450001F9018954C
:100454001F920F920FB60F9211242F933F934F9335
:100464005F936F937F938F939F93AF93BF93EF9318
:10047400FF93CF93DF931F92CDB7DEB78AE58983CD
:1004840061E070E0CE0101960E9406030F90DF91B7
:10049400CF91FF91EF91BF91AF919F918F917F91F8
:1004A4006F915F914F913F912F910F900FBE0F90DD
:0404B4001F901895E8
:1004B8008FEF87BB18BA92E49A95F1F700C093E3DF
:1004C80098BB92E49A95F1F700C096E698BB92E43F
:1004D8009A95F1F700C099E998BB92E49A95F1F7DB
:1004E80000C09CEC98BB92E49A95F1F700C088BBD9
:0A04F80082E48A95F1F700C0089530
:1005020041E061E081E40E94A20041E061E081E417
:100512000E94120141E062E081E40E94A20040E0F8
:1005220062E081E40E94120141E067E084E40E94FB
:10053200A20040E067E084E40E94120185E785BDE5
:0205420008951A
:10054400CF93DF9300D000D01F92CDB7DEB783E303
:100554008A8319821B8288ED8C8386E88D83CE0181
:1005640001960E9455030F900F900F900F900F90DB
:06057400DF91CF91089514
:10057A00EAE7F0E08AE293E0918380838CE592E0F7
:10058A00938382838BE393E09583848381EF92E064
:10059A009783868388E193E09187808788E493E054
:0605AA009387828708958B
:1005B00081B38C6081BB82B38C6082BB8AE085BFD3
:1005C00080EC8BBF0E94A2020E9461030E94810204
:1005D00080E001C08F5F8A30E8F30E94BD0278940A
:0205E00008957C
:1005E2008FEF87BB80E090E00CC0FC01EE0FFF1F95
:1005F200E05AFF4F208128BB21E22A95F1F7000043
:0A06020001968D3091058CF30895E8
:10060C0090938D0080938C0070938B0060938A0084
:10061C0010928900109288005D9BFECFFC018081B6
:04062C008CB90895E8
:100630009FEF97BB20E030E007C028BB93E59A9579
:10064000F1F700002F5F3F4F482F50E02417350788
:04065000A4F3089572
:100654008FEF87BB88BB87EA91E60197F1F700C06B
:10066400000018BA87EA91E60197F1F700C000008C
:020674000895E7
:100676008FEF87BB88BB80E18A95F1F700C018BA77
:0A06860080E18A95F1F700C00895A5
:100690009FEF97BB90E006C088BB23E02A95F1F757
:0A06A000000001979923C4F70895A4
:1006AA00FC01808180BD818189B982818BB9838176
:0806BA008AB9848180BD089516
:1006C20041E050E060E070E081E490E00E94A2002E
:0606D2000E946C03089574
:1006D80040E050E060E070E081E490E00E941201A8
:0206E800089573
:0C06EA00EE0FFF1F0590F491E02D099425
:0606F6000E94D802FFCFB4
:0406FC000C9400005A
:100700008000C000EE00FF00EE00C000800040004E
:0A07100011000000110040008000FD
:00000001FF
