:100000000C9478000C94F8010C942A020C945D0373
:100010000C945D030C945D030C945D030C945D03E0
:100020000C945D030C945D030C945D030C948201AD
:100030000C945D030C94C0010C945D030C945D035F
:100040000C945D030C945D030C945D030C945D03B0
:100050000C945D03AE00C700E000F900110111012E
:100060001101110111011101110111011101110100
:1000700011011101110111011101110111011101F0
:1000800011011101110111011101110111011101E0
:1000900011011101AE00C700E000F9001E01370197
:1000A0005001690181018101810181018101810189
:1000B0008101810181018101810181018101810130
:1000C0008101810181018101810181018101810120
:1000D0008101810181018101810181011E013701BD
:1000E00050016901006001600006BE01600174807A
:1000F00011241FBECFE5D4E0DEBFCDBFE4EEF0E0BB
:1001000040E017C0B591A59135912591059107FD66
:100110000CC095918591EF01F92FE82F05900D9274
:10012000A217B307D9F7FE0104C01D92A217B307A7
:10013000E1F7E03FF40731F70E945C020C94A00065
:04014000F894FFCF61
:1001440090E0FC01E154F109E432F10508F067C0E4
:10015400E65DFF4F0C944803413059F42AB381E023
:1001640090E002C0880F991F6A95E2F7822B8ABB40
:1001740008952AB381E090E002C0880F991F6A9520
:10018400E2F7809582238ABB0895413059F427B35E
:1001940081E090E002C0880F991F6A95E2F7822BF4
:1001A40087BB089527B381E090E002C0880F991FB0
:1001B4006A95E2F78095822387BB0895413059F40C
:1001C40024B381E090E002C0880F991F6A95E2F79A
:1001D400822B84BB089524B381E090E002C0880F91
:1001E400991F6A95E2F78095822384BB0895413074
:1001F40059F421B381E090E002C0880F991F6A95F9
:10020400E2F7822B81BB089521B381E090E002C024
:10021400880F991F6A95E2F78095822381BB089520
:1002240090E0FC01E154F109E432F10508F067C003
:10023400E25BFF4F0C944803413059F42BB381E047
:1002440090E002C0880F991F6A95E2F7822B8BBB5E
:1002540008952BB381E090E002C0880F991F6A953E
:10026400E2F7809582238BBB0895413059F428B37B
:1002740081E090E002C0880F991F6A95E2F7822B13
:1002840088BB089528B381E090E002C0880F991FCD
:100294006A95E2F78095822388BB0895413059F42A
:1002A40025B381E090E002C0880F991F6A95E2F7B8
:1002B400822B85BB089525B381E090E002C0880FAE
:1002C400991F6A95E2F78095822385BB0895413092
:1002D40059F422B381E090E002C0880F991F6A9517
:1002E400E2F7822B82BB089522B381E090E002C042
:1002F400880F991F6A95E2F78095822382BB08953F
:100304001F920F920FB60F9211242F933F934F9386
:100314005F938F939F93EF93FF93F8948CB14091E5
:1003240068015091690120916A0130916B01421773
:100334005307B0F48032A1F0209168013091690133
:10034400E0916C01F0916D01E20FF31F80838091C5
:100354006801909169010196909369018093680105
:100364007894FF91EF919F918F915F914F913F917D
:0C0374002F910F900FBE0F901F90189556
:100380001F920F920FB60F9211242F933F938F93CA
:100390009F93EF93FF93F89480916E0190916F017A
:1003A000019690936F0180936E0120916E013091C0
:1003B0006F0180917001909171012817390760F4E5
:1003C00080916E0190916F01E0917201F091730143
:1003D000E80FF91F80818CB97894FF91EF919F917C
:1003E0008F913F912F910F900FBE0F901F901895F6
:1003F0001F920F920FB60F9211242F933F934F939A
:100400005F936F937F938F939F93AF93BF93EF937C
:10041000FF93CF93DF931F92CDB7DEB781E489833B
:1004200061E070E0CE0101960E9416030F90DF910B
:10043000CF91FF91EF91BF91AF919F918F917F915C
:100440006F915F914F913F912F910F900FBE0F9041
:040450001F9018954C
:100454001F920F920FB60F9211242F933F934F9335
:100464005F936F937F938F939F93AF93BF93EF9318
:10047400FF93CF93DF931F92CDB7DEB78AE58983CD
:1004840061E070E0CE0101960E9416030F90DF91A7
:10049400CF91FF91EF91BF91AF919F918F917F91F8
:1004A4006F915F914F913F912F910F900FBE0F90DD
:0404B4001F901895E8
:1004B800CF93DF93CDB7DEB7DA950FB6F894DEBFEA
:1004C8000FBECDBF0E94EA028FEF87BB18BA80E04B
:1004D800E0E6F0E0DE01119601900D928A95E1F7D1
:1004E800E0E003C0E82F01C0E0E081E08E0FF0E01B
:1004F800EE0FFF1F21E030E02C0F3D1FE20FF31F2E
:0A050800908198BB893771F7EFCF9F
:100512008FEF87BB18BA92E49A95F1F700C093E384
:1005220098BB92E49A95F1F700C096E698BB92E4E4
:100532009A95F1F700C099E998BB92E49A95F1F780
:1005420000C09CEC98BB92E49A95F1F700C088BB7E
:0A05520082E48A95F1F700C00895D5
:10055C0041E061E081E40E94A20041E061E081E4BD
:10056C000E94120141E062E081E40E94A20040E09E
:10057C0062E081E40E94120141E067E084E40E94A1
:10058C00A20040E067E084E40E94120185E785BD8B
:02059C000895C0
:10059E00CF93DF9300D000D01F92CDB7DEB783E3A9
:1005AE008A8319821B8288ED8C8386E88D83CE0127
:1005BE0001960E9428030F900F900F900F900F90AE
:0605CE00DF91CF910895BA
:1005D40081B38C6081BB82B38C6082BB8AE085BFAF
:1005E40080EC8BBF0E94CF020E9434030E94AE02B3
:1005F40080E001C08F5F8A30E8F30E94030378949F
:02060400089557
:10060600E0E6F1E08EE493E09183808389E892E06E
:100616009383828383E593E09583848388E593E0DF
:060626009783868308950E
:10062C0090937301809372017093710160937001C8
:10063C0010926F0110926E015D9BFECFFC018081C8
:04064C008CB90895C8
:10065000FC01808180BD818189B982818BB98381D0
:080660008AB9848180BD089570
:1006680041E050E060E070E081E490E00E94A20088
:060678000E943F030895FB
:10067E0040E050E060E070E081E490E00E94120102
:02068E000895CD
:0C069000EE0FFF1F0590F491E02D09947F
:0A069C008FEF87BB81E088BB089553
:0A06A6008FEF87BB83E088BB089547
:0A06B0008FEF87BB84E088BB08953C
:0406BA000C9400009C
:1006BE00100010001100120013001300140015009A
:1006CE0015001600170017001800190019001A005F
:1006DE001A001B001B001C001C001D001D001E002C
:1006EE001E001E001E001F001F001F001F001F0007
:1006FE001F001F001F001F001F001F001E001E00F6
:10070E001E001E001D001D001C001C001B001B00F7
:10071E001A001A0019001900180017001700160009
:10072E001500150014001300130012001100100024
:10073E0010000F000E000D000C000C000B000A0044
:10074E000A00090008000800070006000600050060
:10075E000500040004000300030002000200010073
:10076E000100010001000000000000000000000078
:10077E000000000000000000000000000100010069
:10078E000100010002000200030003000400040047
:10079E000500050006000600070008000800090015
:1007AE000A000A000B000C000C000D000E000F00DA
:00000001FF
