:100000000C942D000C94AB020C94D0020C94890338
:100010000C9489030C9489030C9489030C94890330
:100020000C9489030C9489030C9489030C944A035F
:100030000C9489030C9489030C9489030C94890310
:100040000C9489030C9489030C9489030C94890300
:100050000C94890300600066800011241FBECFE568
:10006000D4E0DEBFCDBFE4E5F0E040E017C0B591DD
:10007000A59135912591059107FD0CC0959185912C
:10008000EF01F92FE82F05900D92A217B307D9F7CA
:10009000FE0104C01D92A217B307E1F7E935F4078A
:0E00A00031F70E9457000C945500F894FFCFE2
:1000AE008CE082BB8AE085BF80EC8BBF81E08ABB8F
:1000BE0082E08BBB87E08ABB87B3886087BB85E70E
:1000CE0083BF60E875E280E090E00E94840278943D
:1000DE000E947A0380936000809160008C3629F430
:1000EE00809160008093610008C080916000863628
:1000FE0021F48091600080936100809161008C36C4
:10010E0081F480916000803321F48BB38E7F8BBBA2
:10011E0030C080916000813361F58BB381608BBB01
:10012E0028C0809160008B3269F480E090E0A0E8F6
:10013E00BFE38093620090936300A0936400B0933A
:10014E00650017C06091600070E06053710980E037
:10015E0090E00E94180220E030E040E251E40E945C
:10016E007E036093620070936300809364009093AB
:10017E0065002091620030916300409164005091BF
:10018E00650060E070E080E89FE30E94540320E089
:10019E0030E04FE753E40E9482030E9455026CBF89
:0201AE0097CFE9
:1001B00010C00E94620358F00E945B0340F029F4D3
:1001C0005F3F29F00C94700351110C946A030C9456
:1001D00086030E94F50268F39923B1F3552391F346
:1001E000951B550BBB27AA2762177307840738F0A6
:1001F0009F5F5F4F220F331F441FAA1FA9F335D003
:100200000E2E3AF0E0E832D091505040E695001CB6
:10021000CAF72BD0FE2F29D0660F771F881FBB1F70
:10022000261737074807AB07B0E809F0BB0B802D4E
:10023000BF01FF2793585F4F3AF09E3F510578F07A
:100240000C9470030C946A035F3FE4F3983ED4F37C
:10025000869577956795B795F7959F5FC9F7880F4E
:10026000911D9695879597F90895E1E0660F771FA0
:10027000881FBB1F621773078407BA0720F0621B31
:0E028000730B840BBA0BEE1F88F7E095089500
:10028E000FC00E945B0338F00E94620320F095239A
:10029E0011F00C9470030C94860311240C946A03D1
:1002AE000E94F50270F3959FC1F3950F50E0551F14
:1002BE00629FF001729FBB27F00DB11D639FAA27AD
:1002CE00F00DB11DAA1F649F6627B00DA11D661FFC
:1002DE00829F2227B00DA11D621F739FB00DA11D1D
:1002EE00621F839FA00D611D221F749F3327A00DD7
:1002FE00611D231F849F600D211D822F762F6A2F73
:10030E0011249F5750409AF0F1F088234AF0EE0FD7
:10031E00FF1FBB1F661F771F881F91505040A9F704
:10032E009E3F510580F00C9470030C946A035F3F5E
:10033E00E4F3983ED4F3869577956795B795F79540
:10034E00E7959F5FC1F7FE2B880F911D96958795B8
:04035E0097F908956E
:1003620011C00E945B0338F00E94620320F039F44E
:100372009F3F19F426F40C9486030EF4E095E7FBF4
:100382000C947003E92F0E94F50258F3BA17620722
:1003920073078407950720F079F4A6F50C94690396
:1003A2000EF4E0950B2EBA2FA02D0B01B90190018E
:1003B2000C01CA01A0011124FF27591B99F0593FD2
:1003C20050F4503E68F11A16F040A22F232F342F1A
:1003D2004427585FF3CF469537952795A795F04068
:1003E2005395C9F77EF41F16BA0B620B730B840B7D
:1003F200BAF09150A1F0FF0FBB1F661F771F881F35
:10040200C2F70EC0BA0F621F731F841F48F487958C
:1004120077956795B795F7959E3F08F0B0CF93957E
:0E042200880F08F09927EE0F9795879508959B
:10043000E89409C097FB3EF490958095709561957E
:100440007F4F8F4F9F4F9923A9F0F92F96E9BB2734
:100450009395F695879577956795B795F111F8CFB0
:10046000FAF4BB0F11F460FF1BC06F5F7F4F8F4F1B
:100470009F4F16C0882311F096E911C0772321F011
:100480009EE8872F762F05C0662371F096E8862FA9
:1004900070E060E02AF09A95660F771F881FDAF700
:0A04A000880F9695879597F9089547
:1004AA000E94FD0288F09F5798F0B92F9927B751FB
:1004BA00B0F0E1F0660F771F881F991F1AF0BA95FE
:1004CA00C9F714C0B13091F00E946903B1E00895F0
:1004DA000C946903672F782F8827B85F39F0B93FE2
:1004EA00CCF3869577956795B395D9F73EF49095B1
:0E04FA008095709561957F4F8F4F9F4F0895AD
:10050800DC01CB01880F991FAA1FBB1F880F991FF9
:10051800AA1FBB1F9C01AD01220F331F441F551F8B
:10052800220F331F441F551F60E072E18AE790E0F5
:100538000E9417032150310930BD29B98AB188605A
:0E0548008AB98AB180618AB986E880BD0895BB
:100556001F920F920FB60F9211242F933F934F9332
:100566005F936F937F938F939F93AF93BF93EF9315
:10057600FF9381E40E947603FF91EF91BF91AF91C3
:100586009F918F917F916F915F914F913F912F91A5
:0A0596000F900FBE0F901F901895F4
:1005A0001F920F920FB60F9211242F933F934F93E8
:1005B0005F936F937F938F939F93AF93BF93EF93CB
:1005C000FF938AE50E947603FF91EF91BF91AF916F
:1005D0009F918F917F916F915F914F913F912F915B
:0A05E0000F900FBE0F901F901895AA
:1005EA0057FD9058440F551F59F05F3F71F04795DA
:1005FA00880F97FB991F61F09F3F79F087950895BF
:10060A00121613061406551FF2CF4695F1DF08C0DD
:10061A00161617061806991FF1CF869571056105FA
:04062A000894089593
:10062E00A1E21A2EAA1BBB1BFD010DC0AA1FBB1FE8
:10063E00EE1FFF1FA217B307E407F50720F0A21B5A
:10064E00B30BE40BF50B661F771F881F991F1A94C7
:10065E0069F760957095809590959B01AC01BD01F1
:04066E00CF0108951B
:10067200092E0394000C11F4882352F0BB0F40F4AE
:10068200BF2B11F460FF04C06F5F7F4F8F4F9F4FEE
:020692000895C9
:100694001F920F920FB60F9211240F900FBE0F905E
:0406A4001F901895F6
:0E06A8005058BB27AA270E94B1010C943903B9
:0E06B60000240A941616170618060906089561
:0E06C40000240A941216130614060506089563
:0E06D200E894BB2766277727CB0197F9089598
:0C06E00097F99F6780E870E060E00895E3
:0806EC005D9BFECF8CB908955F
:0806F4005F9BFECF8CB108955D
:0806FC000E94D8000C943903A0
:080704000E9447010C94390327
:06070C009FEF80EC089550
:040712000C94000043
:00000001FF
