:100000000C944E000C94AD030C94D2030C94B704E2
:100010000C94B7040C94B7040C94B7040C94B70474
:100020000C94B7040C94B7040C94B7040C946B04B0
:100030000C94B7040C94B7040C94B7040C94B70454
:100040000C94B7040C94B7040C94B7040C94B70444
:100050000C94B70445015E0177019001A801A80145
:10006000A801A801A801A801A801A801A801A80148
:10007000A801A801A801A801A801A801A801A80138
:10008000A801A801A801A801A801A801A801A80128
:10009000A801A80145015E017701900111241FBE4E
:1000A000CFE5D4E0DEBFCDBF0E945A000C945800CB
:0400B000F894FFCFF2
:1000B400CF93DF9300D000D000D0CDB7DEB760E897
:1000C40075E280E090E00E94860341E061E084E60E
:1000D4000E94390141E062E084E60E94390141E076
:1000E40060E081E60E9439010E943B0419821A8271
:1000F4001B821C820E94A8048E838E81803409F0A6
:100104006AC00E94A804B82E2FEF80E792E0215025
:1001140080409040E1F700C0000000E010E0E12CD6
:100124006894FF24F4F8C12CD12C25C00E94A804A3
:10013400813460F090E0C7978E9D90018F9D300DC3
:100144009E9D300D1124C20ED31E0BC090E0C097AB
:100154008E9D90018F9D300D9E9D300D1124C20EF9
:10016400D31EF694E794F694E794F694E794F69401
:10017400E7940F5F1F4F04301105C4F222E7B21257
:1001840017C0C6010E947504182F8FEF90E722E074
:10019400815090402040E1F700C000000E94A80474
:1001A4008B33B1F4812F0E94A4040E94260310C053
:1001B40087E7B8120DC00E94A804182F0E94A80453
:1001C4008B3331F4612FC6010E945F040E94260321
:1001D40080E28E8338C08E818C3689F40E94A80414
:1001E4008D838D81803321F48BB38E7F8BBB2BC0A9
:1001F4008D81813341F58BB381608BBB24C08E81AB
:10020400863609F50E94A8048D838D818B3249F4CA
:1002140080E090E0A0E8BFE389839A83AB83BC834A
:1002240012C06D8170E06053710980E090E00E941B
:10023400E90220E030E040E251E40E94AC0469832A
:100244007A838B839C8329813A814B815C8160E032
:1002540070E080E89FE30E947C0420E030E04FE7F8
:0E02640053E40E94B0040E9457036CBF43CFC6
:1002720090E0FC01E154F109E432F10508F067C0B5
:10028200E65DFF4F0C949E04413059F42AB381E09D
:1002920090E002C0880F991F6A95E2F7822B8ABB11
:1002A20008952AB381E090E002C0880F991F6A95F1
:1002B200E2F7809582238ABB0895413059F427B32F
:1002C20081E090E002C0880F991F6A95E2F7822BC5
:1002D20087BB089527B381E090E002C0880F991F81
:1002E2006A95E2F78095822387BB0895413059F4DD
:1002F20024B381E090E002C0880F991F6A95E2F76B
:10030200822B84BB089524B381E090E002C0880F61
:10031200991F6A95E2F78095822384BB0895413044
:1003220059F421B381E090E002C0880F991F6A95C9
:10033200E2F7822B81BB089521B381E090E002C0F5
:10034200880F991F6A95E2F78095822381BB0895F1
:1003520010C00E948A0458F00E94830440F029F4DD
:100362005F3F29F00C94980451110C9492040C9460
:10037200B4040E94F70368F39923B1F3552391F370
:10038200951B550BBB27AA2762177307840738F002
:100392009F5F5F4F220F331F441FAA1FA9F335D05F
:1003A2000E2E3AF0E0E832D091505040E695001C13
:1003B200CAF72BD0FE2F29D0660F771F881FBB1FCD
:1003C200261737074807AB07B0E809F0BB0B802DAB
:1003D200BF01FF2793585F4F3AF09E3F510578F0D7
:1003E2000C9498040C9492045F3FE4F3983ED4F387
:1003F200869577956795B795F7959F5FC9F7880FAB
:10040200911D9695879597F90895E1E0660F771FFC
:10041200881FBB1F621773078407BA0720F0621B8D
:0E042200730B840BBA0BEE1F88F7E09508955C
:100430000FC00E94830438F00E948A0420F09523A4
:1004400011F00C9498040C94B40411240C949204AC
:100450000E94F70370F3959FC1F3950F50E0551F6D
:10046000629FF001729FBB27F00DB11D639FAA2709
:10047000F00DB11DAA1F649F6627B00DA11D661F58
:10048000829F2227B00DA11D621F739FB00DA11D79
:10049000621F839FA00D611D221F749F3327A00D33
:1004A000611D231F849F600D211D822F762F6A2FCF
:1004B00011249F5750409AF0F1F088234AF0EE0F34
:1004C000FF1FBB1F661F771F881F91505040A9F761
:1004D0009E3F510580F00C9498040C9492045F3F69
:1004E000E4F3983ED4F3869577956795B795F7959D
:1004F000E7959F5FC1F7FE2B880F911D9695879515
:0405000097F90895CA
:1005040011C00E94830438F00E948A0420F039F458
:100514009F3F19F426F40C94B4040EF4E095E7FB21
:100524000C949804E92F0E94F70358F3BA17620752
:1005340073078407950720F079F4A6F50C949104C9
:100544000EF4E0950B2EBA2FA02D0B01B9019001EA
:100554000C01CA01A0011124FF27591B99F0593F2E
:1005640050F4503E68F11A16F040A22F232F342F76
:100574004427585FF3CF469537952795A795F040C4
:100584005395C9F77EF41F16BA0B620B730B840BD9
:10059400BAF09150A1F0FF0FBB1F661F771F881F91
:1005A400C2F70EC0BA0F621F731F841F48F48795E9
:1005B40077956795B795F7959E3F08F0B0CF9395DB
:0E05C400880F08F09927EE0F979587950895F8
:1005D200E89409C097FB3EF49095809570956195DB
:1005E2007F4F8F4F9F4F9923A9F0F92F96E9BB2791
:1005F2009395F695879577956795B795F111F8CF0D
:10060200FAF4BB0F11F460FF1BC06F5F7F4F8F4F77
:100612009F4F16C0882311F096E911C0772321F06D
:100622009EE8872F762F05C0662371F096E8862F05
:1006320070E060E02AF09A95660F771F881FDAF75C
:0A064200880F9695879597F90895A3
:10064C008BB381608BBB2FEF80E792E02150804011
:10065C009040E1F700C000008BB38E7F8BBB2FEF77
:10066C0080E792E0215080409040E1F700C000000C
:10067C008BB381608BBB2FEF80E792E021508040E1
:10068C009040E1F700C000008BB38E7F8BBB2FEF47
:10069C0080E792E0215080409040E1F700C00000DC
:0206AC000895AF
:1006AE000E94FF0388F09F5798F0B92F9927B751F2
:1006BE00B0F0E1F0660F771F881F991F1AF0BA95F8
:1006CE00C9F714C0B13091F00E949104B1E00895C1
:1006DE000C949104672F782F8827B85F39F0B93FB3
:1006EE00CCF3869577956795B395D9F73EF49095AB
:0E06FE008095709561957F4F8F4F9F4F0895A7
:10070C00DC01CB01880F991FAA1FBB1F880F991FF3
:10071C00AA1FBB1F9C01AD01220F331F441F551F85
:10072C00220F331F441F551F60E072E18AE790E0EF
:10073C000E9419042150310930BD29B98AB1886051
:0E074C008AB98AB180618AB986E880BD0895B5
:10075A001F920F920FB60F9211242F933F934F932C
:10076A005F936F937F938F939F93AF93BF93EF930F
:10077A00FF9381E40E94A404FF91EF91BF91AF918E
:10078A009F918F917F916F915F914F913F912F919F
:0A079A000F900FBE0F901F901895EE
:1007A4001F920F920FB60F9211242F933F934F93E2
:1007B4005F936F937F938F939F93AF93BF93EF93C5
:1007C400FF938AE50E94A404FF91EF91BF91AF913A
:1007D4009F918F917F916F915F914F913F912F9155
:0A07E4000F900FBE0F901F901895A4
:1007EE0057FD9058440F551F59F05F3F71F04795D4
:1007FE00880F97FB991F61F09F3F79F087950895B9
:10080E00121613061406551FF2CF4695F1DF08C0D7
:10081E00161617061806991FF1CF869571056105F4
:04082E00089408958D
:10083200A1E21A2EAA1BBB1BFD010DC0AA1FBB1FE2
:10084200EE1FFF1FA217B307E407F50720F0A21B54
:10085200B30BE40BF50B661F771F881F991F1A94C1
:1008620069F760957095809590959B01AC01BD01EB
:04087200CF01089515
:100876008CE082BB8AE085BF80EC8BBF81E08ABBBF
:1008860082E08BBB87E08ABB87B3886087BB85E73E
:0608960083BF7894089571
:10089C00092E0394000C11F4882352F0BB0F40F482
:1008AC00BF2B11F460FF04C06F5F7F4F8F4F9F4FC2
:0208BC0008959D
:1008BE008EBB9FBB6DBB8CB384608CBB8CB38260D4
:0808CE008CBBE199FECF0895F7
:1008D6001F920F920FB60F9211240F900FBE0F901A
:0408E6001F901895B2
:0E08EA008EBB9FBB8CB381608CBB8DB3089519
:0E08F8005058BB27AA270E9482020C944E047F
:0E09060000240A94161617061806090608950E
:0E09140000240A941216130614060506089510
:0E092200E894BB2766277727CB0197F9089545
:0C09300097F99F6780E870E060E0089590
:0C093C00EE0FFF1F0590F491E02D0994D0
:080948005D9BFECF8CB9089500
:080950005F9BFECF8CB10895FE
:080958000E94A9010C944E0459
:080960000E9418020C944E04E1
:060968009FEF80EC0895F2
:04096E000C940000E5
:00000001FF
