:100000000C9475000C9469060C949B060C94E00803
:100010000C94E0080C94E0080C94E0080C94E008C0
:100020000C94E0080C94E0080C94E0080C9447054C
:100030000C94E0080C94FD050C94E0080C94E00886
:100040000C94E0080C94E0080C94E0080C94E00890
:100050000C94E0089E02B702D002E90201030103FA
:100060000103010301030103010301030103010370
:100070000103010301030103010301030103010360
:100080000103010301030103010301030103010350
:10009000010301039E02B702D002E9020E03270307
:1000A00040035903710371037103710371037103F9
:1000B00071037103710371037103710371037103A0
:1000C0007103710371037103710371037103710390
:1000D0007103710371037103710371030E0327032D
:1000E0004003590300600084800011241FBECFE547
:1000F000D4E0DEBFCDBFE4EEF0E040E017C0B59144
:10010000A59135912591059107FD0CC0959185919B
:10011000EF01F92FE82F05900D92A217B307D9F739
:10012000FE0104C01D92A217B307E1F7E93EF407F0
:0E01300031F70E94BA080C949D00F894FFCF9E
:10013E002F923F924F925F926F927F928F92AF92D9
:10014E00BF92CF92DF92EF920F931F93CF93DF93D5
:10015E0000D000D000D0CDB7DEB73B01882E5A01BB
:10016E0019014115510521F0FA01608371838283D3
:10017E002114310429F0C1010297839708F01AC1A6
:10018E00E82C6301FFEFCF1ADF0AEF0AF301149197
:10019E0087FC1081812F90E00E947B084C2D3D2D15
:1001AE002E2D892B19F036018E2CEACF1D3269F4D3
:1001BE00E82C630152E0C50ED11CE11CE42FF32F95
:1001CE00149127FD108101E00EC01B3259F4E82C6A
:1001DE00630182E0C80ED11CE11CE42FF32F1491B1
:1001EE0027FD108100E02114310409F190E1291658
:1001FE00310429F43FC010E32114310421F1F8E059
:10020E002F16310401F154F432E02316310421F596
:10021E00412C512C612C50E4752E4BC04AE0241613
:10022E00310439F050E125163104B1F43DC01033DC
:10023E0019F13AE0232E312C4CEC442E542C642C24
:10024E004CE0742E36C098E0292E312C412C512CC6
:10025E00612C20E1722E2DC060E070E080E090E80D
:10026E009101032C000C440B550B0E9443072901EE
:10027E003A011FC01033C1F4F6018491E7FC80816E
:10028E008F7D883509F0B7CFAE2DC6010196A11D21
:10029E00FC011491A7FD1081E2E0CE0ED11CE11CF1
:1002AE00026060E1262E312C412C512C612C88E00D
:1002BE00782EA0E060E070E0CB019101032C000CE1
:1002CE00440B550B29833A834B835C83E0EDE10F9E
:1002DE00EA3060F02FEB210F2A3110F4E9EC05C063
:1002EE002FE9210F2A3150F5E9EAE10F2E2F30E0E8
:1002FE00221533051CF5A7FD18C0461657066806CD
:10030E00790680F029813A814B815C810E94010837
:10031E006E0F711D811D911D61307105810530E8D3
:10032E00930710F0AFEF01C0A1E0F6011491E7FCC6
:10033E0010814FEFC41AD40AE40AC8CF202F2170BF
:10034E00A114B104B1F0AA2349F051E0C51AD108A5
:10035E00E108F501C082D182E2820BC001FF1DC00F
:10036E00F2E0CF1AD108E108F501C082D182E28213
:10037E0014C0A7FF12C0222329F060E070E080E0D5
:10038E0090E804C06FEF7FEF8FEF9FE722E230E03F
:10039E00309361002093600009C0222381F0909574
:1003AE008095709561957F4F8F4F9F4F462F372FBA
:1003BE00282F12C040E030E020E090E00DC097FF03
:1003CE00F5CF82E290E090936100809360006FEF32
:1003DE007FEF8FEF9FE7EACF642F732F822F269642
:1003EE000FB6F894DEBF0FBECDBFDF91CF911F9138
:1003FE000F91EF90DF90CF90BF90AF908F907F9046
:0C040E006F905F904F903F902F900895EA
:10041A000F931F93CF93DF931F92CDB7DEB7FC01E3
:10042A00228101E0203309F400E0FC01338121E05C
:10043A00323709F420E0122F20E3298340E050E00C
:10044A00A0E0B0E060E070E128C0FA013496E80F5D
:10045A00F91F2081213468F030E027533109269FA3
:10046A00F001279FF00D369FF00D1124AE0FBF1F2C
:10047A000CC030E020533109269FF001279FF00D70
:10048A00369FF00D1124AE0FBF1F729562956F70E3
:10049A0067277F7067274F5F5F4F44305105ACF283
:1004AA000023E9F0013089F5111111C0CD010E9434
:1004BA008408898387EA91E60197F1F700C0000072
:1004CA0061E070E0CE0101960E94CD071EC0113096
:1004DA00E1F4FC016085CD010E943B0816C01111B0
:1004EA000FC08C91898387EA91E60197F1F700C0E2
:1004FA00000061E070E0CE0101960E94CD0705C0C0
:10050A00113019F4FC0180858C930E9435060F90F6
:0A051A00DF91CF911F910F9108951A
:1005240090E0FC01E154F109E432F10508F067C000
:10053400E65DFF4F0C94B408413059F42AB381E0CE
:1005440090E002C0880F991F6A95E2F7822B8ABB5C
:1005540008952AB381E090E002C0880F991F6A953C
:10056400E2F7809582238ABB0895413059F427B37A
:1005740081E090E002C0880F991F6A95E2F7822B10
:1005840087BB089527B381E090E002C0880F991FCC
:100594006A95E2F78095822387BB0895413059F428
:1005A40024B381E090E002C0880F991F6A95E2F7B6
:1005B400822B84BB089524B381E090E002C0880FAD
:1005C400991F6A95E2F78095822384BB0895413090
:1005D40059F421B381E090E002C0880F991F6A9515
:1005E400E2F7822B81BB089521B381E090E002C041
:1005F400880F991F6A95E2F78095822381BB08953D
:1006040090E0FC01E154F109E432F10508F067C01F
:10061400E25BFF4F0C94B408413059F42BB381E0F2
:1006240090E002C0880F991F6A95E2F7822B8BBB7A
:1006340008952BB381E090E002C0880F991F6A955A
:10064400E2F7809582238BBB0895413059F428B397
:1006540081E090E002C0880F991F6A95E2F7822B2F
:1006640088BB089528B381E090E002C0880F991FE9
:100674006A95E2F78095822388BB0895413059F446
:1006840025B381E090E002C0880F991F6A95E2F7D4
:10069400822B85BB089525B381E090E002C0880FCA
:1006A400991F6A95E2F78095822385BB08954130AE
:1006B40059F422B381E090E002C0880F991F6A9533
:1006C400E2F7822B82BB089522B381E090E002C05E
:1006D400880F991F6A95E2F78095822382BB08955B
:1006E40010C00E94990858F00E94920840F029F422
:1006F4005F3F29F00C94AE0851110C94A1080C949E
:10070400DA080E94210768F39923B1F3552391F382
:10071400951B550BBB27AA2762177307840738F06C
:100724009F5F5F4F220F331F441FAA1FA9F335D0C9
:100734000E2E3AF0E0E832D091505040E695001C7D
:10074400CAF72BD0FE2F29D0660F771F881FBB1F37
:10075400261737074807AB07B0E809F0BB0B802D15
:10076400BF01FF2793585F4F3AF09E3F510578F041
:100774000C94AE080C94A1085F3FE4F3983ED4F3C4
:10078400869577956795B795F7959F5FC9F7880F15
:10079400911D9695879597F90895E1E0660F771F67
:1007A400881FBB1F621773078407BA0720F0621BF8
:0E07B400730B840BBA0BEE1F88F7E0950895C7
:1007C2000FC00E94920838F00E94990820F09523E9
:1007D20011F00C94AE080C94DA0811240C94A108C0
:1007E2000E94210770F3959FC1F3950F50E0551FAA
:1007F200629FF001729FBB27F00DB11D639FAA2774
:10080200F00DB11DAA1F649F6627B00DA11D661FC2
:10081200829F2227B00DA11D621F739FB00DA11DE3
:10082200621F839FA00D611D221F749F3327A00D9D
:10083200611D231F849F600D211D822F762F6A2F39
:1008420011249F5750409AF0F1F088234AF0EE0F9E
:10085200FF1FBB1F661F771F881F91505040A9F7CB
:100862009E3F510580F00C94AE080C94A1085F3FA6
:10087200E4F3983ED4F3869577956795B795F79507
:10088200E7959F5FC1F7FE2B880F911D969587957F
:0408920097F9089535
:1008960011C00E94920838F00E94990820F039F49D
:1008A6009F3F19F426F40C94DA080EF4E095E7FB62
:1008B6000C94AE08E92F0E94210758F3BA17620775
:1008C60073078407950720F079F4A6F50C94A00821
:1008D6000EF4E0950B2EBA2FA02D0B01B901900155
:1008E6000C01CA01A0011124FF27591B99F0593F99
:1008F60050F4503E68F11A16F040A22F232F342FE1
:100906004427585FF3CF469537952795A795F0402E
:100916005395C9F77EF41F16BA0B620B730B840B43
:10092600BAF09150A1F0FF0FBB1F661F771F881FFB
:10093600C2F70EC0BA0F621F731F841F48F4879553
:1009460077956795B795F7959E3F08F0B0CF939545
:0E095600880F08F09927EE0F97958795089562
:10096400FF920F931F93CF93DF9300D01F92CDB7C5
:10097400DEB78C0120E00FC0822F90E0FC0133969B
:10098400E00FF11F3081E1E0F0E0EC0FFD1FE80F14
:10099400F91F30832F5F233078F3BE016F5F7F4FE1
:1009A40080E80E94D608F82E20E00FC0822F90E045
:1009B400FC013696E00FF11F3081E1E0F0E0EC0F2E
:1009C400FD1FE80FF91F30832F5F233078F3BE013A
:1009D4006F5F7F4F80E80E94D608D8011296EC9191
:1009E400E053F0E0EE0FFF1FE459FF4F0190F08158
:1009F400E02D682F8F2D09950F900F900F90DF91A8
:0A0A0400CF911F910F91FF9008950C
:100A0E00FC0162816B3269F480E090E0A0E8BFE304
:100A1E008093740090937500A0937600B093770046
:100A2E0017C070E060537109072E000C880B990BEC
:100A3E000E94870520E030E040E251E40E94CE089B
:100A4E006093740070937500809376009093770096
:100A5E00209174003091750040917600509177008E
:100A6E0060E070E080E89FE30E948B0820E030E0B9
:100A7E004FE753E40E94D2080E94CD0663BD08954D
:100A8E001F920F920FB60F9211242F933F934F93F5
:100A9E005F938F939F93EF93FF93F8948CB1409154
:100AAE0078005091790020917A0030917B004217A6
:100ABE005307B0F48032A1F0209178003091790084
:100ACE00E0917C00F0917D00E20FF31F8083809116
:100ADE007800909179000196909379008093780038
:100AEE007894FF91EF919F918F915F914F913F91EC
:0C0AFE002F910F900FBE0F901F901895C5
:100B0A00E89409C097FB3EF490958095709561959D
:100B1A007F4F8F4F9F4F9923A9F0F92F96E9BB2753
:100B2A009395F695879577956795B795F111F8CFCF
:100B3A00FAF4BB0F11F460FF1BC06F5F7F4F8F4F3A
:100B4A009F4F16C0882311F096E911C0772321F030
:100B5A009EE8872F762F05C0662371F096E8862FC8
:100B6A0070E060E02AF09A95660F771F881FDAF71F
:0A0B7A00880F9695879597F9089566
:100B84006AE070E082E690E00E942E080E9420084D
:100B94008823E1F380916200803499F480916B00A2
:100BA4008B3379F4809163008053813061F028F0B5
:100BB400823071F0833089F004C082E690E00E94B4
:100BC400DF0780E015C082E690E00E940705F9CFB8
:100BD40082E690E00E940D02F4CF82E690E00E944B
:100BE400B204EFCFE82FF0E0EE59FF4F10828F5F91
:060BF4008A30C0F30895F1
:100BFA001F920F920FB60F9211242F933F938F9348
:100C0A009F93EF93FF93F89480917E0090917F00D9
:100C1A00019690937F0080937E0020917E00309110
:100C2A007F0080918000909181002817390760F435
:100C3A0080917E0090917F00E0918200F091830084
:100C4A00E80FF91F80818CB97894FF91EF919F91F9
:100C5A008F913F912F910F900FBE0F901F90189573
:100C6A008AB381608ABB8BB381608BBB2FE986E82C
:100C7A0091E0215080409040E1F700C000008BB322
:100C8A008E7F8BBB2FE986E891E02150804090400F
:100C9A00E1F700C000008BB381608BBB2FE986E8C7
:100CAA0091E0215080409040E1F700C000008BB3F2
:100CBA008E7F8BBB2FE986E891E0215080409040DF
:080CCA00E1F700C000000895ED
:100CD2001F920F920FB60F9211242F933F934F93AF
:100CE2005F936F937F938F939F93AF93BF93EF9392
:100CF200FF93CF93DF931F92CDB7DEB781E4898351
:100D020061E070E0CE0101960E94CD070F90DF9165
:100D1200CF91FF91EF91BF91AF919F918F917F9171
:100D22006F915F914F913F912F910F900FBE0F9056
:040D32001F90189561
:100D36001F920F920FB60F9211242F933F934F934A
:100D46005F936F937F938F939F93AF93BF93EF932D
:100D5600FF93CF93DF931F92CDB7DEB78AE58983E2
:100D660061E070E0CE0101960E94CD070F90DF9101
:100D7600CF91FF91EF91BF91AF919F918F917F910D
:100D86006F915F914F913F912F910F900FBE0F90F2
:040D96001F901895FD
:100D9A000E94290788F09F5798F0B92F9927B751D1
:100DAA00B0F0E1F0660F771F881F991F1AF0BA9505
:100DBA00C9F714C0B13091F00E94A008B1E00895BB
:100DCA000C94A008672F782F8827B85F39F0B93FAD
:100DDA00CCF3869577956795B395D9F73EF49095B8
:0E0DEA008095709561957F4F8F4F9F4F0895B4
:100DF8008FEF87BB18BA92E49A95F1F700C093E396
:100E080098BB92E49A95F1F700C096E698BB92E4F5
:100E18009A95F1F700C099E998BB92E49A95F1F791
:100E280000C09CEC98BB92E49A95F1F700C088BB8F
:0A0E380082E48A95F1F700C00895E6
:100E420057FD9058440F551F59F05F3F71F0479579
:100E5200880F97FB991F61F09F3F79F0879508955E
:100E6200121613061406551FF2CF4695F1DF08C07D
:100E7200161617061806991FF1CF8695710561059A
:040E82000894089533
:100E8600A1E21A2EAA1BBB1BFD010DC0AA1FBB1F88
:100E9600EE1FFF1FA217B307E407F50720F0A21BFA
:100EA600B30BE40BF50B661F771F881F991F1A9467
:100EB60069F760957095809590959B01AC01BD0191
:040EC600CF010895BB
:100ECA0041E061E081E40E94920241E061E081E454
:100EDA000E94020341E062E081E40E94920240E043
:100EEA0062E081E40E94020341E067E084E40E9438
:100EFA00920240E067E084E40E94020385E785BD30
:020F0A00089548
:100F0C00CF93DF9300D000D01F92CDB7DEB783E331
:100F1C008A8319821B8288ED8C8386E88D83CE01AF
:100F2C0001960E9447080F900F900F900F900F9012
:060F3C00DF91CF91089542
:100F420081B38C6081BB82B38C6082BB8AE085BF37
:100F520080EC8BBF0E9486070E9453080E9465079F
:100F620080E001C08F5F8A30E8F30E94BA0778946C
:020F72000895E0
:100F7400ECE6F0E08FEB98E0918380838CEF96E0D1
:100F84009383828384EC98E09583848389EC98E04E
:060F940097838683089597
:100F9A009093830080938200709381006093800015
:100FAA0010927F0010927E005D9BFECFFC01808133
:040FBA008CB9089551
:100FBE00FC01928181E0903309F480E0882319F0DE
:100FCE00813021F008950E94720808950E946908E8
:020FDE00089574
:100FE000092E0394000C11F4882352F0BB0F40F437
:100FF000BF2B11F460FF04C06F5F7F4F8F4F9F4F77
:02100000089551
:10100200DB018F939F930E945E08BF91AF91A29FD5
:10101200800D911DA39F900DB29F900D11240895F4
:10102200A29FB001B39FC001A39F700D811D112427
:0E103200911DB29F700D811D1124911D089516
:10104000409178005091790020917A0030917B0096
:0C10500081E04217530708F480E0089587
:10105C0090937D0080937C0070937B0060937A006A
:0A106C0010927900109278000895A8
:101076008EBB9FBB6DBB8CB384608CBB8CB3826014
:081086008CBBE199FECF089537
:10108E00FC01808180BD818189B982818BB9838188
:08109E008AB9848180BD089528
:1010A60041E050E060E070E081E490E00E9492024E
:0610B6000E94720808957B
:1010BC000E941108A59F900DB49F900DA49F800DC8
:0610CC00911D112408959E
:1010D20041E050E060E070E081E490E00E940203B1
:0210E20008956F
:1010E40040E050E060E070E081E490E00E940203A0
:0210F40008955D
:1010F60091110C94DD08803219F089508550C8F79B
:0211060008954A
:0E1108008EBB9FBB8CB381608CBB8DB30895F2
:0E1116005058BB27AA270E944B040C94F007E8
:0E11240000240A9416161706180609060895E8
:0E11320000240A9412161306140605060895EA
:0E114000E894BB2766277727CB0197F908951F
:0E114E002AE030E040E050E00E949F0008954B
:0C115C0097F99F6780E870E060E008955C
:0C116800EE0FFF1F0590F491E02D09949C
:0A1174000E94A1070E94C205FDCFF2
:0A117E008FEF87BB81E088BB089566
:0A1188008FEF87BB83E088BB08955A
:0A1192008FEF87BB84E088BB08954F
:08119C000E9472030C94F0079D
:0811A4000E94E1030C94F00726
:0811AC000E94A708CB01089581
:0611B4009FEF80EC08959E
:0611BA0099278827089523
:0411C0000C9400008B
:00000001FF
