:100000000C944E000C9416040C943B040C942005A4
:100010000C9420050C9420050C9420050C942005CC
:100020000C9420050C9420050C9420050C94D40409
:100030000C9420050C9420050C9420050C942005AC
:100040000C9420050C9420050C9420050C9420059C
:100050000C942005AE01C701E001F9011102110263
:1000600011021102110211021102110211021102F8
:1000700011021102110211021102110211021102E8
:1000800011021102110211021102110211021102D8
:1000900011021102AE01C701E001F90111241FBED6
:1000A000CFE5D4E0DEBFCDBF0E945A000C945800CB
:0400B000F894FFCFF2
:1000B400CF93DF9300D000D000D0CDB7DEB760E897
:1000C40075E280E090E00E94EF0341E061E084E6A5
:1000D4000E94A20141E062E084E60E94A20141E0A4
:1000E40060E081E60E94A2010E94A40419821A829F
:1000F4001B821C820E9411058E838E81803409F03C
:1001040069C00E941105B82E2FEF80E792E02150BC
:1001140080409040E1F700C0000000E010E0E12CD6
:100124006894FF24F4F8C12CD12C25C00E94110539
:10013400813460F090E0C7978E9D90018F9D300DC3
:100144009E9D300D1124C20ED31E0BC090E0C097AB
:100154008E9D90018F9D300D9E9D300D1124C20EF9
:10016400D31EF694E794F694E794F694E794F69401
:10017400E7940F5F1F4F04301105C4F2E2E7BE128B
:1001840017C0C6010E94DE04182FFFEF20E782E0AB
:10019400F15020408040E1F700C000000E941105AA
:1001A4008B33B1F4812F0E940D050E948F0310C080
:1001B40097E7B9120DC00E941105182F0E9411056E
:1001C4008B3331F4612FC6010E94C8040E948F034F
:1001D40080E28E838E81833209F066C00E9411050D
:1001E400B82EEFEFF0E722E0E150F0402040E1F7D5
:1001F40000C0000000E010E0E12C6894FF24F4F853
:10020400C12CD12C25C00E941105813460F090E0EE
:10021400C7978E9D90018F9D300D9E9D300D1124AA
:10022400C20ED31E0BC090E0C0978E9D90018F9D8F
:10023400300D9E9D300D1124C20ED31EF694E7940A
:10024400F694E794F694E794F694E7940F5F1F4FBF
:1002540004301105C4F282E7B81215C0F60110810A
:10026400FFEF20E782E0F15020408040E1F700C03A
:1002740000000E9411058B33A1F4812F0E940D050B
:100284000E948F030EC097E7B9120BC00E9411059C
:10029400182F0E9411058B3321F4F60110830E945C
:1002A4008F0380E28E8338C08E818C3689F40E945D
:1002B40011058D838D81803321F48BB38E7F8BBBAD
:1002C4002BC08D81813341F58BB381608BBB24C0FE
:1002D4008E81863609F50E9411058D838D818B32BE
:1002E40049F480E090E0A0E8BFE389839A83AB837C
:1002F400BC8312C06D8170E06053710980E090E0AE
:100304000E94520320E030E040E251E40E941505CF
:1003140069837A838B839C8329813A814B815C81B5
:1003240060E070E080E89FE30E94E50420E030E0B4
:100334004FE753E40E9419050E94C0036CBFDACE54
:1003440090E0FC01E154F109E432F10508F067C0E2
:10035400E65DFF4F0C940705413059F42AB381E060
:1003640090E002C0880F991F6A95E2F7822B8ABB3E
:1003740008952AB381E090E002C0880F991F6A951E
:10038400E2F7809582238ABB0895413059F427B35C
:1003940081E090E002C0880F991F6A95E2F7822BF2
:1003A40087BB089527B381E090E002C0880F991FAE
:1003B4006A95E2F78095822387BB0895413059F40A
:1003C40024B381E090E002C0880F991F6A95E2F798
:1003D400822B84BB089524B381E090E002C0880F8F
:1003E400991F6A95E2F78095822384BB0895413072
:1003F40059F421B381E090E002C0880F991F6A95F7
:10040400E2F7822B81BB089521B381E090E002C022
:10041400880F991F6A95E2F78095822381BB08951E
:1004240010C00E94F30458F00E94EC0440F029F438
:100434005F3F29F00C94010551110C94FB040C94BA
:100444001D050E94600468F39923B1F3552391F3C9
:10045400951B550BBB27AA2762177307840738F02F
:100464009F5F5F4F220F331F441FAA1FA9F335D08C
:100474000E2E3AF0E0E832D091505040E695001C40
:10048400CAF72BD0FE2F29D0660F771F881FBB1FFA
:10049400261737074807AB07B0E809F0BB0B802DD8
:1004A400BF01FF2793585F4F3AF09E3F510578F004
:1004B4000C9401050C94FB045F3FE4F3983ED4F3E1
:1004C400869577956795B795F7959F5FC9F7880FD8
:1004D400911D9695879597F90895E1E0660F771F2A
:1004E400881FBB1F621773078407BA0720F0621BBB
:0E04F400730B840BBA0BEE1F88F7E09508958A
:100502000FC00E94EC0438F00E94F30420F09523FF
:1005120011F00C9401050C941D0511240C94FB049C
:100522000E94600470F3959FC1F3950F50E0551F30
:10053200629FF001729FBB27F00DB11D639FAA2736
:10054200F00DB11DAA1F649F6627B00DA11D661F85
:10055200829F2227B00DA11D621F739FB00DA11DA6
:10056200621F839FA00D611D221F749F3327A00D60
:10057200611D231F849F600D211D822F762F6A2FFC
:1005820011249F5750409AF0F1F088234AF0EE0F61
:10059200FF1FBB1F661F771F881F91505040A9F78E
:1005A2009E3F510580F00C9401050C94FB045F3FC3
:1005B200E4F3983ED4F3869577956795B795F795CA
:1005C200E7959F5FC1F7FE2B880F911D9695879542
:0405D20097F90895F8
:1005D60011C00E94EC0438F00E94F30420F039F4B4
:1005E6009F3F19F426F40C941D050EF4E095E7FBE5
:1005F6000C940105E92F0E94600458F3BA176207AC
:1006060073078407950720F079F4A6F50C94FA048D
:100616000EF4E0950B2EBA2FA02D0B01B901900117
:100626000C01CA01A0011124FF27591B99F0593F5B
:1006360050F4503E68F11A16F040A22F232F342FA3
:100646004427585FF3CF469537952795A795F040F1
:100656005395C9F77EF41F16BA0B620B730B840B06
:10066600BAF09150A1F0FF0FBB1F661F771F881FBE
:10067600C2F70EC0BA0F621F731F841F48F4879516
:1006860077956795B795F7959E3F08F0B0CF939508
:0E069600880F08F09927EE0F97958795089525
:1006A400E89409C097FB3EF4909580957095619508
:1006B4007F4F8F4F9F4F9923A9F0F92F96E9BB27BE
:1006C4009395F695879577956795B795F111F8CF3A
:1006D400FAF4BB0F11F460FF1BC06F5F7F4F8F4FA5
:1006E4009F4F16C0882311F096E911C0772321F09B
:1006F4009EE8872F762F05C0662371F096E8862F33
:1007040070E060E02AF09A95660F771F881FDAF789
:0A071400880F9695879597F90895D0
:10071E008BB381608BBB2FEF80E792E0215080403E
:10072E009040E1F700C000008BB38E7F8BBB2FEFA4
:10073E0080E792E0215080409040E1F700C0000039
:10074E008BB381608BBB2FEF80E792E0215080400E
:10075E009040E1F700C000008BB38E7F8BBB2FEF74
:10076E0080E792E0215080409040E1F700C0000009
:02077E000895DC
:100780000E94680488F09F5798F0B92F9927B751B5
:10079000B0F0E1F0660F771F881F991F1AF0BA9525
:1007A000C9F714C0B13091F00E94FA04B1E0089585
:1007B0000C94FA04672F782F8827B85F39F0B93F77
:1007C000CCF3869577956795B395D9F73EF49095D8
:0E07D0008095709561957F4F8F4F9F4F0895D4
:1007DE00DC01CB01880F991FAA1FBB1F880F991F21
:1007EE00AA1FBB1F9C01AD01220F331F441F551FB3
:1007FE00220F331F441F551F60E072E18AE790E01D
:10080E000E9482042150310930BD29B98AB1886015
:0E081E008AB98AB180618AB986E880BD0895E2
:10082C001F920F920FB60F9211242F933F934F9359
:10083C005F936F937F938F939F93AF93BF93EF933C
:10084C00FF9381E40E940D05FF91EF91BF91AF9151
:10085C009F918F917F916F915F914F913F912F91CC
:0A086C000F900FBE0F901F9018951B
:100876001F920F920FB60F9211242F933F934F930F
:100886005F936F937F938F939F93AF93BF93EF93F2
:10089600FF938AE50E940D05FF91EF91BF91AF91FD
:1008A6009F918F917F916F915F914F913F912F9182
:0A08B6000F900FBE0F901F901895D1
:1008C00057FD9058440F551F59F05F3F71F0479501
:1008D000880F97FB991F61F09F3F79F087950895E6
:1008E000121613061406551FF2CF4695F1DF08C005
:1008F000161617061806991FF1CF86957105610522
:0409000008940895BA
:10090400A1E21A2EAA1BBB1BFD010DC0AA1FBB1F0F
:10091400EE1FFF1FA217B307E407F50720F0A21B81
:10092400B30BE40BF50B661F771F881F991F1A94EE
:1009340069F760957095809590959B01AC01BD0118
:04094400CF01089542
:100948008CE082BB8AE085BF80EC8BBF81E08ABBEC
:1009580082E08BBB87E08ABB87B3886087BB85E76B
:0609680083BF789408959E
:10096E00092E0394000C11F4882352F0BB0F40F4AF
:10097E00BF2B11F460FF04C06F5F7F4F8F4F9F4FEF
:02098E000895CA
:100990008EBB9FBB6DBB8CB384608CBB8CB3826001
:0809A0008CBBE199FECF089524
:1009A8001F920F920FB60F9211240F900FBE0F9047
:0409B8001F901895DF
:0E09BC008EBB9FBB8CB381608CBB8DB3089546
:0E09CA005058BB27AA270E94EB020C94B704DA
:0E09D80000240A94161617061806090608953C
:0E09E60000240A94121613061406050608953E
:0E09F400E894BB2766277727CB0197F9089573
:0C0A020097F99F6780E870E060E00895BD
:0C0A0E00EE0FFF1F0590F491E02D0994FD
:080A1A005D9BFECF8CB908952D
:080A22005F9BFECF8CB108952B
:080A2A000E9412020C94B704B3
:080A32000E9481020C94B7043C
:060A3A009FEF80EC08951F
:040A40000C94000012
:00000001FF
