:100000000C942E000C9458000C94A6000C9425011E
:100010000C9425010C9425010C9425010C942501C8
:100020000C9425010C9425010C9425010C941301CA
:100030000C9425010C9425010C9425010C942501A8
:100040000C9425010C9425010C9425010C94250198
:100050000C9425010060006100024E0011241FBEB7
:10006000CFE5D4E0DEBFCDBFE4E5F0E040E017C06F
:10007000B591A59135912591059107FD0CC09591FC
:100080008591EF01F92FE82F05900D92A217B30784
:10009000D9F7FE0104C01D92A217B307E1F7EB35B3
:1000A000F40731F70E94CC000C945600F894FFCF6F
:1000B0001F920F920FB60F9211242F933F934F93DD
:1000C0005F936F937F938F939F93AF93BF93EF93C0
:1000D000FF9381E40E941D0181E08BBBFF91EF91B2
:1000E000BF91AF919F918F917F916F915F914F9150
:0E00F0003F912F910F900FBE0F901F9018950B
:1000FE00DC01CB01880F991FAA1FBB1F880F991F08
:10010E00AA1FBB1F9C01AD01220F331F441F551F99
:10011E00220F331F441F551F60E072E18AE790E003
:10012E000E94F1002150310930BD29B98AB1886091
:0E013E008AB98AB180618AB986E880BD0895C9
:10014C001F920F920FB60F9211242F933F934F9340
:10015C005F936F937F938F939F93AF93BF93EF9323
:10016C00FF938AE50E941D011BBAFF91EF91BF918D
:10017C00AF919F918F917F916F915F914F913F9133
:0C018C002F910F900FBE0F901F90189540
:100198008CE082BB8AE085BF80EC8BBF81E08ABBA4
:1001A8001BBA60E875E280E090E00E947F007894D6
:1001B8000E9421018093600080916000803321F4C7
:1001C8008FEF8ABB1BBAF4CF80916000813381F72F
:0A01D8008FEF8ABB81E08BBBEBCFF9
:1001E200A1E21A2EAA1BBB1BFD010DC0AA1FBB1F39
:1001F200EE1FFF1FA217B307E407F50720F0A21BAB
:10020200B30BE40BF50B661F771F881F991F1A9417
:1002120069F760957095809590959B01AC01BD0141
:04022200CF0108956B
:100226001F920F920FB60F9211240F900FBE0F90D0
:040236001F90189568
:08023A005D9BFECF8CB9089515
:080242005F9BFECF8CB1089513
:04024A000C94000010
:01024E007837
:00000001FF
